{
  "contractName": "KryptoBird",
  "abi": [
    {
      "inputs": [],
      "stateMutability": "nonpayable",
      "type": "constructor"
    },
    {
      "anonymous": false,
      "inputs": [
        {
          "indexed": true,
          "internalType": "address",
          "name": "from",
          "type": "address"
        },
        {
          "indexed": true,
          "internalType": "address",
          "name": "to",
          "type": "address"
        },
        {
          "indexed": true,
          "internalType": "uint256",
          "name": "tokenId",
          "type": "uint256"
        }
      ],
      "name": "Transfer",
      "type": "event"
    },
    {
      "inputs": [
        {
          "internalType": "address",
          "name": "owner",
          "type": "address"
        }
      ],
      "name": "balanceOf",
      "outputs": [
        {
          "internalType": "uint256",
          "name": "",
          "type": "uint256"
        }
      ],
      "stateMutability": "view",
      "type": "function",
      "constant": true
    },
    {
      "inputs": [
        {
          "internalType": "uint256",
          "name": "",
          "type": "uint256"
        }
      ],
      "name": "kryptoBirdz",
      "outputs": [
        {
          "internalType": "string",
          "name": "",
          "type": "string"
        }
      ],
      "stateMutability": "view",
      "type": "function",
      "constant": true
    },
    {
      "inputs": [],
      "name": "name",
      "outputs": [
        {
          "internalType": "string",
          "name": "",
          "type": "string"
        }
      ],
      "stateMutability": "view",
      "type": "function",
      "constant": true
    },
    {
      "inputs": [
        {
          "internalType": "uint256",
          "name": "tokenId",
          "type": "uint256"
        }
      ],
      "name": "ownerOf",
      "outputs": [
        {
          "internalType": "address",
          "name": "",
          "type": "address"
        }
      ],
      "stateMutability": "view",
      "type": "function",
      "constant": true
    },
    {
      "inputs": [],
      "name": "symbol",
      "outputs": [
        {
          "internalType": "string",
          "name": "",
          "type": "string"
        }
      ],
      "stateMutability": "view",
      "type": "function",
      "constant": true
    },
    {
      "inputs": [
        {
          "internalType": "string",
          "name": "_kryptoBird",
          "type": "string"
        }
      ],
      "name": "mint",
      "outputs": [],
      "stateMutability": "nonpayable",
      "type": "function"
    }
  ],
  "bytecode": "0x60806040523480156200001157600080fd5b506040518060400160405280600a81526020017f4b727970746f42697264000000000000000000000000000000000000000000008152506040518060400160405280600681526020017f4b424952445a00000000000000000000000000000000000000000000000000008152508181816002908051906020019062000098929190620000bc565b508060039080519060200190620000b1929190620000bc565b5050505050620001d0565b828054620000ca906200019b565b90600052602060002090601f016020900481019282620000ee57600085556200013a565b82601f106200010957805160ff19168380011785556200013a565b828001600101855582156200013a579182015b82811115620001395782518255916020019190600101906200011c565b5b5090506200014991906200014d565b5090565b5b80821115620001685760008160009055506001016200014e565b5090565b7f4e487b7100000000000000000000000000000000000000000000000000000000600052602260045260246000fd5b60006002820490506001821680620001b457607f821691505b602082108103620001ca57620001c96200016c565b5b50919050565b610f8980620001e06000396000f3fe608060405234801561001057600080fd5b50600436106100625760003560e01c806306fdde03146100675780636352211e1461008557806370a08231146100b557806393ab6e56146100e557806395d89b4114610115578063d85d3d2714610133575b600080fd5b61006f61014f565b60405161007c91906108f5565b60405180910390f35b61009f600480360381019061009a9190610961565b6101e1565b6040516100ac91906109cf565b60405180910390f35b6100cf60048036038101906100ca9190610a16565b610291565b6040516100dc9190610a52565b60405180910390f35b6100ff60048036038101906100fa9190610961565b610348565b60405161010c91906108f5565b60405180910390f35b61011d6103f4565b60405161012a91906108f5565b60405180910390f35b61014d60048036038101906101489190610ba2565b610486565b005b60606002805461015e90610c1a565b80601f016020809104026020016040519081016040528092919081815260200182805461018a90610c1a565b80156101d75780601f106101ac576101008083540402835291602001916101d7565b820191906000526020600020905b8154815290600101906020018083116101ba57829003601f168201915b5050505050905090565b60008060008084815260200190815260200160002060009054906101000a900473ffffffffffffffffffffffffffffffffffffffff169050600073ffffffffffffffffffffffffffffffffffffffff168173ffffffffffffffffffffffffffffffffffffffff1603610288576040517f08c379a000000000000000000000000000000000000000000000000000000000815260040161027f90610c97565b60405180910390fd5b80915050919050565b60008073ffffffffffffffffffffffffffffffffffffffff168273ffffffffffffffffffffffffffffffffffffffff1603610301576040517f08c379a00000000000000000000000000000000000000000000000000000000081526004016102f890610c97565b60405180910390fd5b600160008373ffffffffffffffffffffffffffffffffffffffff1673ffffffffffffffffffffffffffffffffffffffff168152602001908152602001600020549050919050565b6004818154811061035857600080fd5b90600052602060002001600091509050805461037390610c1a565b80601f016020809104026020016040519081016040528092919081815260200182805461039f90610c1a565b80156103ec5780601f106103c1576101008083540402835291602001916103ec565b820191906000526020600020905b8154815290600101906020018083116103cf57829003601f168201915b505050505081565b60606003805461040390610c1a565b80601f016020809104026020016040519081016040528092919081815260200182805461042f90610c1a565b801561047c5780601f106104515761010080835404028352916020019161047c565b820191906000526020600020905b81548152906001019060200180831161045f57829003601f168201915b5050505050905090565b6005816040516104969190610cf3565b908152602001604051809103902060009054906101000a900460ff16156104f2576040517f08c379a00000000000000000000000000000000000000000000000000000000081526004016104e990610d7c565b60405180910390fd5b60048190806001815401808255809150506001900390600052602060002001600090919091909150908051906020019061052d9291906107b9565b50600060016004805490506105429190610dcb565b905061054e3382610589565b60016005836040516105609190610cf3565b908152602001604051809103902060006101000a81548160ff0219169083151502179055505050565b600073ffffffffffffffffffffffffffffffffffffffff168273ffffffffffffffffffffffffffffffffffffffff16036105f8576040517f08c379a00000000000000000000000000000000000000000000000000000000081526004016105ef90610e71565b60405180910390fd5b61060181610748565b15610641576040517f08c379a000000000000000000000000000000000000000000000000000000000815260040161063890610edd565b60405180910390fd5b8160008083815260200190815260200160002060006101000a81548173ffffffffffffffffffffffffffffffffffffffff021916908373ffffffffffffffffffffffffffffffffffffffff16021790555060018060008473ffffffffffffffffffffffffffffffffffffffff1673ffffffffffffffffffffffffffffffffffffffff16815260200190815260200160002060008282546106e19190610efd565b92505081905550808273ffffffffffffffffffffffffffffffffffffffff16600073ffffffffffffffffffffffffffffffffffffffff167fddf252ad1be2c89b69c2b068fc378daa952ba7f163c4a11628f55a4df523b3ef60405160405180910390a45050565b60008060008084815260200190815260200160002060009054906101000a900473ffffffffffffffffffffffffffffffffffffffff169050600073ffffffffffffffffffffffffffffffffffffffff168173ffffffffffffffffffffffffffffffffffffffff161415915050919050565b8280546107c590610c1a565b90600052602060002090601f0160209004810192826107e7576000855561082e565b82601f1061080057805160ff191683800117855561082e565b8280016001018555821561082e579182015b8281111561082d578251825591602001919060010190610812565b5b50905061083b919061083f565b5090565b5b80821115610858576000816000905550600101610840565b5090565b600081519050919050565b600082825260208201905092915050565b60005b8381101561089657808201518184015260208101905061087b565b838111156108a5576000848401525b50505050565b6000601f19601f8301169050919050565b60006108c78261085c565b6108d18185610867565b93506108e1818560208601610878565b6108ea816108ab565b840191505092915050565b6000602082019050818103600083015261090f81846108bc565b905092915050565b6000604051905090565b600080fd5b600080fd5b6000819050919050565b61093e8161092b565b811461094957600080fd5b50565b60008135905061095b81610935565b92915050565b60006020828403121561097757610976610921565b5b60006109858482850161094c565b91505092915050565b600073ffffffffffffffffffffffffffffffffffffffff82169050919050565b60006109b98261098e565b9050919050565b6109c9816109ae565b82525050565b60006020820190506109e460008301846109c0565b92915050565b6109f3816109ae565b81146109fe57600080fd5b50565b600081359050610a10816109ea565b92915050565b600060208284031215610a2c57610a2b610921565b5b6000610a3a84828501610a01565b91505092915050565b610a4c8161092b565b82525050565b6000602082019050610a676000830184610a43565b92915050565b600080fd5b600080fd5b7f4e487b7100000000000000000000000000000000000000000000000000000000600052604160045260246000fd5b610aaf826108ab565b810181811067ffffffffffffffff82111715610ace57610acd610a77565b5b80604052505050565b6000610ae1610917565b9050610aed8282610aa6565b919050565b600067ffffffffffffffff821115610b0d57610b0c610a77565b5b610b16826108ab565b9050602081019050919050565b82818337600083830152505050565b6000610b45610b4084610af2565b610ad7565b905082815260208101848484011115610b6157610b60610a72565b5b610b6c848285610b23565b509392505050565b600082601f830112610b8957610b88610a6d565b5b8135610b99848260208601610b32565b91505092915050565b600060208284031215610bb857610bb7610921565b5b600082013567ffffffffffffffff811115610bd657610bd5610926565b5b610be284828501610b74565b91505092915050565b7f4e487b7100000000000000000000000000000000000000000000000000000000600052602260045260246000fd5b60006002820490506001821680610c3257607f821691505b602082108103610c4557610c44610beb565b5b50919050565b7f4552433732313a206f776e657220646f6573206e6f7420657869737400000000600082015250565b6000610c81601c83610867565b9150610c8c82610c4b565b602082019050919050565b60006020820190508181036000830152610cb081610c74565b9050919050565b600081905092915050565b6000610ccd8261085c565b610cd78185610cb7565b9350610ce7818560208601610878565b80840191505092915050565b6000610cff8284610cc2565b915081905092915050565b7f4572726f72202d206b727970746f4269726420616c726561647920657869737460008201527f7300000000000000000000000000000000000000000000000000000000000000602082015250565b6000610d66602183610867565b9150610d7182610d0a565b604082019050919050565b60006020820190508181036000830152610d9581610d59565b9050919050565b7f4e487b7100000000000000000000000000000000000000000000000000000000600052601160045260246000fd5b6000610dd68261092b565b9150610de18361092b565b925082821015610df457610df3610d9c565b5b828203905092915050565b7f4552433732313a206d696e74696e6720746f20746865207a65726f206164647260008201527f6573730000000000000000000000000000000000000000000000000000000000602082015250565b6000610e5b602383610867565b9150610e6682610dff565b604082019050919050565b60006020820190508181036000830152610e8a81610e4e565b9050919050565b7f4552433732313a20746f6b656e20616c7265616479206d696e74656400000000600082015250565b6000610ec7601c83610867565b9150610ed282610e91565b602082019050919050565b60006020820190508181036000830152610ef681610eba565b9050919050565b6000610f088261092b565b9150610f138361092b565b9250827fffffffffffffffffffffffffffffffffffffffffffffffffffffffffffffffff03821115610f4857610f47610d9c565b5b82820190509291505056fea26469706673582212201b12cd888c4ca53fbb1137112bdc08c405edcdf30e7c19a822747afb3e8b834464736f6c634300080d0033",
  "immutableReferences": {},
  "source": "// SPDX-License-Identifier: MIT\r\npragma solidity ^0.8.0;\r\n\r\nimport './ERC721Connector.sol';\r\n\r\ncontract KryptoBird is ERC721Connector {\r\n\tstring[] public kryptoBirdz;\r\n\r\n\tmapping(string => bool) _kyrptoBirdzExists;\r\n\r\n\tfunction mint(string memory _kryptoBird) public {\r\n\t\trequire(!_kyrptoBirdzExists[_kryptoBird], 'Error - kryptoBird already exists');\r\n\r\n\t\tkryptoBirdz.push(_kryptoBird);\r\n\t\tuint _id = kryptoBirdz.length - 1;\r\n\t\t_mint(msg.sender, _id);\r\n\r\n\t\t_kyrptoBirdzExists[_kryptoBird] = true;\r\n\t}\r\n\r\n\tconstructor() ERC721Connector('KryptoBird', 'KBIRDZ') {}\r\n}",
  "sourcePath": "/mnt/c/Users/Bud Linville/Workspaces/crypto/udemy/nft-marketplace-starter-kit/src/contracts/KryptoBirdz.sol",
  "compiler": {
    "name": "solc",
    "version": "0.8.13+commit.abaa5c0e.Emscripten.clang"
  },
  "schemaVersion": "3.4.6",
  "updatedAt": "2022-04-21T00:17:30.927Z",
  "networkType": "ethereum",
  "devdoc": {
    "kind": "dev",
    "methods": {},
    "version": 1
  },
  "userdoc": {
    "kind": "user",
    "methods": {},
    "version": 1
  }
}